:100000000C945D000C9485000C9485000C94850084
:100010000C9485000C9485000C9485000C9485004C
:100020000C9485000C9485000C9485000C9485003C
:100030000C9485000C9485000C9485000C9485002C
:100040000C94EB050C9485000C94B9050C94930565
:100050000C9485000C9485000C9485000C9485000C
:100060000C9485000C94850000000008000201003B
:100070000003040700000000000000000000000072
:10008000250028002B0000000000240027002A0083
:10009000040404040404040402020202020203032E
:1000A0000303030301020408102040800102040836
:1000B0001020010204081020350611241FBECFEFC6
:1000C000D8E0DEBFCDBF11E0A0E0B1E0ECE1FBE1A4
:1000D00002C005900D92A034B107D9F722E0A0E448
:1000E000B1E001C01D92A137B207E1F710E0CDE504
:1000F000D0E004C02197FE010E94640DCC35D107E9
:10010000C9F70E94DE060C948C0D0C94000090E060
:10011000FC01EC55FF4F249180579F4FFC018491C7
:10012000882399F090E0880F991FFC01EA57FF4F50
:10013000A591B491FC01E458FF4F859194918FB73C
:10014000F894EC91E22BEC938FBF08950F931F93DB
:10015000CF93DF93C0913C02EDE3F2E0CD3211F09A
:10016000ECE3F2E08F0120E030E0A901D801DD915D
:100170008D0180ED8D0F8A3090F4AAE0B0E00E94EE
:100180006A0D2D2FDD0F330B440B550B260F371F38
:10019000481F591F2053310941095109E7CFA4E6EF
:1001A000B0E00E946A0DAB01BC01DF01819190EDCE
:1001B000980F9A30D0F38E3259F511968C91119791
:1001C00090ED980F9A3020F5082E000C990BC097EF
:1001D0002AE0289F8001299F100D1124012E000C78
:1001E000220B330B400F511F621F731F12968C910D
:1001F00090ED980F9A3060F4082E000C990BC09780
:10020000092E000CAA0BBB0B480F591F6A1F7B1F3E
:10021000CD3239F470956095509541955F4F6F4F91
:100220007F4FCB01BA01DF91CF911F910F910895BC
:100230004F925F926F927F928F929F92AF92BF92F6
:10024000CF92DF92EF92FF921F93CF93DF93CCE395
:10025000D2E0FE01C12CD12C7601119180ED810FED
:100260008A30A8F4AAE0B0E0A70196010E946A0DC6
:10027000C12E110FDD08EE08FF08C60ED71EE81EBE
:10028000F91E80E3C81AD108E108F108E6CFC701DA
:10029000B60124E630E040E050E00E94420D9B01B0
:1002A000AC0160EA76E881E090E00E94320D4B01FB
:1002B0005C019E01899190ED980F9A30D0F38E32B7
:1002C00021F5E901219680E1482E87E2582E612C24
:1002D000712CA99180ED8A0F8A30B8F40A2E000C97
:1002E000BB0BD097A30192010E94750D860E971E3D
:1002F000A81EB91EC301B2012AE030E040E050E080
:100300000E94420D29013A01E4CFC701B60124E65B
:1003100030E040E050E00E94420D60E472E48FE083
:1003200090E00E94320D6B017C01C501B4016D5F4C
:100330007F4F8F4F9F4F26E030E040E050E00E941B
:10034000420DC701B601620F731F841F951FDF9115
:10035000CF911F91FF90EF90DF90CF90BF90AF9023
:100360009F908F907F906F905F904F900895AF9285
:10037000BF92CF92DF92EF92FF920F931F93CF9392
:10038000DF936C017B018B01040F151FEB015E01F4
:10039000AE18BF08C017D10759F06991D601ED9189
:1003A000FC910190F081E02DC6010995892B79F728
:1003B000C501DF91CF911F910F91FF90EF90DF90DA
:1003C000CF90BF90AF900895FC01538D448D252FA1
:1003D00030E0842F90E0821B930B541710F0CF96DF
:1003E000089501970895FC01918D828D981761F011
:1003F000A28DAE0FBF2FB11D5D968C91928D9F5F28
:100400009F73928F90E008958FEF9FEF0895FC0106
:10041000918D828D981731F0828DE80FF11D858DB9
:1004200090E008958FEF9FEF0895FC01918D228D4C
:10043000892F90E0805C9F4F821B91098F739927D1
:10044000089589E491E00E94150221E0892B09F4C6
:1004500020E0822F089580E090E0892B29F00E940F
:10046000210281110C9400000895FC01A48DA80FB5
:10047000B92FB11DA35ABF4F2C91848D90E00196E6
:100480008F739927848FA689B7892C93A089B18906
:100490008C91837080648C93938D848D981306C0A7
:1004A0000288F389E02D80818F7D80830895EF920B
:1004B000FF920F931F93CF93DF93EC0181E0888F1E
:1004C0009B8D8C8D98131AC0E889F989808185FFEE
:1004D00015C09FB7F894EE89FF896083E889F98990
:1004E00080818370806480839FBF81E090E0DF9192
:1004F000CF911F910F91FF90EF900895F62E0B8DE5
:1005000010E00F5F1F4F0F731127E02E8C8D8E119F
:100510000CC00FB607FCFACFE889F989808185FF06
:10052000F5CFCE010E943502F1CFEB8DEC0FFD2F00
:10053000F11DE35AFF4FF0829FB7F8940B8FEA89C1
:10054000FB8980818062CFCFCF93DF93EC01888DD0
:100550008823B9F0AA89BB89E889F9898C9185FD3E
:1005600003C0808186FD0DC00FB607FCF7CF8C91CC
:1005700085FFF2CF808185FFEDCFCE010E9435024D
:10058000E9CFDF91CF91089590E0FC01E859FF4F4A
:100590002491FC01EC55FF4F3491FC01E057FF4FD3
:1005A000E491EE23C9F0222339F0233001F1A8F4BD
:1005B000213019F1223029F1F0E0EE0FFF1FE4584D
:1005C000FF4FA591B4918FB7F894EC91611126C0BB
:1005D00030953E233C938FBF08952730A9F02830F3
:1005E000C9F0243049F7809180008F7D03C080914D
:1005F00080008F7780938000DFCF84B58F7784BDB4
:10060000DBCF84B58F7DFBCF8091B0008F77809357
:10061000B000D2CF8091B0008F7DF9CF3E2BDACFE2
:100620002FB7F89460914501709146018091470180
:10063000909148012FBF0895089590E080E00895BB
:10064000FC0101900020E9F73197AF01481B590BDD
:10065000BC0189E592E00C94B7018F929F92AF9212
:10066000BF920F931F93CF93DF93CDB7DEB7A197C0
:100670000FB6F894DEBF0FBECDBF19A2423008F40A
:100680004AE08E010F5D1F4F842E912CB12CA12CBE
:10069000A50194010E94420DE62FB901CA01EA307A
:1006A000F4F4E05DD801EE938D01232B242B252B50
:1006B00079F790E080E0109719F0CD010E942003B7
:1006C000A1960FB6F894DEBF0FBECDBFDF91CF91DC
:1006D0001F910F91BF90AF909F908F900895E95C0C
:1006E000E1CFCF93DF93EC0160E08E810E94C402E2
:1006F00061E08E810E94C40260E08E810E94C4028B
:100700008BE891E00197F1F7DF91CF910895CF92B7
:10071000DF92EF92FF920F931F93CF93DF936C01C1
:100720007C0187E0E80EF11CD0E0C0E0062F10E06D
:10073000B8010C2E02C0759567950A94E2F76170B6
:10074000F70181917F010E94C4022196C430D10536
:1007500079F7C601DF91CF911F910F91FF90EF9034
:10076000DF90CF900C947103CF92DF92EF92FF92C3
:100770000F931F93CF93DF93EC01F62E642F8C81A0
:100780000E94C4028D818F3F19F060E00E94C40274
:100790000F2D10E08F8584FF25C06E0187E0C80E05
:1007A000D11CF12CE12CB8010E2C02C07595679577
:1007B0000A94E2F76170F60181916F010E94C40210
:1007C000FFEFEF1AFF0A88E0E816F10461F7CE01A7
:1007D000DF91CF911F910F91FF90EF90DF90CF901D
:1007E0000C947103B80184E0759567958A95E1F7DB
:1007F000CE010E9487036F2DCE01DF91CF911F9113
:100800000F91FF90EF90DF90CF900C94870340E022
:10081000682F89E592E00C94B403CF93DF93823084
:1008200029F49091680298609093680280936C021A
:1008300010926D0280E480936E0280E180936F02DB
:1008400080E58093700280915D020E948700809114
:100850005E028F3F11F00E94870080915F020E942C
:100860008700C9E5D2E09E01295532408091680297
:1008700084FD0AC084E090E02196281739073CF4F3
:100880008E810E948700EFCF88E090E0F5CF8BE368
:100890009DE00197F1F760E080915D020E94C40243
:1008A00060E080915F020E94C40280915E028F3FEF
:1008B00019F060E00E94C4028091680284FD39C092
:1008C00063E089E592E00E948703CBE4D6E4CE01A1
:1008D0000197F1F763E089E592E00E948703219791
:1008E000F1F763E089E592E00E94870383E592E0F7
:1008F0000197F1F762E089E592E00E948703809119
:10090000680280620E94070484E0809369028CE0A0
:100910000E94070481E00E9407048BE39FE1019796
:10092000F1F782E080936A0286E0DF91CF910C9428
:10093000070480620E9407048BE496E40197F1F7B4
:100940008091680280620E94070483E592E001972B
:10095000F1F78091680280620E940704D0CF41E0E5
:100960000E94B40381E090E008954F925F926F92ED
:100970007F928F929F92AF92BF92CF92DF92EF922F
:10098000FF920F931F93CF936B017C01742EAC01E8
:100990009B010E942D0D882399F08EE191E0CF916B
:1009A0001F910F91FF90EF90DF90CF90BF90AF908D
:1009B0009F908F907F906F905F904F900C9420034A
:1009C00046015701E894B7F82FEF3FEF4FE75FE795
:1009D000C501B4010E942D0D81110DC02FEF3FEF15
:1009E0004FE75FE7C501B4010E94630B18161CF4C2
:1009F00082E291E0D4CF2FEF3FEF4FE75FE4C701F2
:100A0000B6010E94BB0C18161CF486E291E0C7CF19
:100A10002FEF3FEF4FE75FECC701B6010E94630B7A
:100A200087FDF3CF20E030E0A901C701B6010E94A5
:100A3000630B10E000E087FF0CC041E06DE289E548
:100A400092E00E94B403F7FAF094F7F8F09401E012
:100A500010E0C0E060E070E080E09FE37C1641F0D1
:100A600020E030E040E251E40E94680BCF5FF6CF17
:100A7000A70196010E94F70A4B015C010E94DA0B64
:100A80002B013C014AE00E942D03080F191FCC23C3
:100A9000C9F1C301B2010E94090C9B01AC01C5015F
:100AA000B4010E94F60A4B015C0141E06EE289E567
:100AB00092E00E94B4030F5F1F4FC15018F120E075
:100AC00030E040E251E4C501B4010E94C00C2B01AA
:100AD0003C010E94DA0B4B01B12CA12C4AE0C5016C
:100AE000B4010E942D03080F191FC501B4010E9413
:100AF000090C9B01AC01C301B2010E94F60A4B0133
:100B00005C01DBCFC801CF911F910F91FF90EF9057
:100B1000DF90CF90BF90AF909F908F907F906F901D
:100B20005F904F9008951F920F920FB60F9211246D
:100B30002F933F934F935F936F937F938F939F93E5
:100B4000AF93BF93EF93FF9389E491E00E94350246
:100B5000FF91EF91BF91AF919F918F917F916F9195
:100B60005F914F913F912F910F900FBE0F901F906B
:100B700018951F920F920FB60F9211242F938F93F7
:100B80009F93EF93FF93E0915901F0915A01808177
:100B9000E0915F01F091600182FD1BC09081809126
:100BA00062018F5F8F7320916301821741F0E091A2
:100BB0006201F0E0E75BFE4F958F80936201FF9149
:100BC000EF919F918F912F910F900FBE0F901F90DB
:100BD00018958081F4CF1F920F920FB60F921124B7
:100BE0002F933F938F939F93AF93BF938091450132
:100BF00090914601A0914701B09148013091440184
:100C000023E0230F2D3758F50196A11DB11D209328
:100C100044018093450190934601A0934701B0930E
:100C200048018091400190914101A0914201B09111
:100C300043010196A11DB11D809340019093410194
:100C4000A0934201B0934301BF91AF919F918F91C7
:100C50003F912F910F900FBE0F901F90189526E88F
:100C6000230F0296A11DB11DD2CFE9E4F1E013825A
:100C7000128288EE93E0A0E0B0E084839583A6839F
:100C8000B78384E091E09183808385EC90E0958741
:100C9000848784EC90E09787868780EC90E0918B46
:100CA000808B81EC90E0938B828B82EC90E0958B33
:100CB000848B86EC90E0978B868B118E128E138E30
:100CC000148EE9E5F2E01382128286E191E09183CD
:100CD000808388E084838FEF858387E0868386E046
:100CE000878385E0808784E0818783E0828713861D
:100CF000148615861686178681E00E940D04E6EE9E
:100D0000F1E04FEF5FEFBA01408351836283738359
:100D100010861186128613868FEF99ECAAE9BBE341
:100D2000808B918BA28BB38B808F918FA28FB38F8F
:100D300080A391A3A2A3B3A380A791A7A2A7B3A7BF
:100D400080AB91ABA2ABB3AB40AF51AF62AF73AF6F
:100D50008FEF90E0909327028093260240932A021F
:100D600050932B0260932C0270932D024093320219
:100D700050933302609334027093350210923A021A
:100D800010923B0282E080934B0210924C02109230
:100D90004D0210924E0210924F0210925002109289
:100DA0005102109252021092540210925302109269
:100DB00056021092550210923C020895789484B520
:100DC000826084BD84B5816084BD85B5826085BD47
:100DD00085B5816085BD80916E00816080936E00D5
:100DE00010928100809181008260809381008091C7
:100DF0008100816080938100809180008160809378
:100E000080008091B10084608093B1008091B00037
:100E100081608093B00080917A00846080937A0032
:100E200080917A00826080937A0080917A0081605C
:100E300080937A0080917A00806880937A00109283
:100E4000C100E0915901F0915A0182E08083E09164
:100E50005501F09156011082E0915701F09158012F
:100E60008FEC808310926101E0915D01F0915E0151
:100E700086E08083E0915B01F0915C01808180617C
:100E80008083E0915B01F0915C01808188608083C8
:100E9000E0915B01F0915C01808180688083E0914A
:100EA0005B01F0915C0180818F7D808382E00E94F4
:100EB0000D042BE3E22E2FE1F22E12E033243394C3
:100EC00090E0C92E90E0D92E0E9410034B015C01E6
:100ED00000E00E941003681979098A099B09683E9D
:100EE00073408105910508F451C1002309F466C0DF
:100EF0004090F6015090F7016090F8017090F90170
:100F00008090FE019090FF01A0900002B09001023D
:100F10008091320290913302A0913402B091350257
:100F20008F3F9F4FAF4FBF4F11F00E941003FFEF55
:100F30004F16F9EC5F06FAE96F06FBE37F0609F44A
:100F40001EC3C301B2010E940B0C20E034E244E74F
:100F500059E40E94680B2B013C01C501B4010E94B9
:100F60000B0C20E034E244E759E40E94680B4B018B
:100F70005C0181E00E940704C7010197F1F786E355
:100F800091E00E94200345E0C301B2010E94B50434
:100F9000E0916C02E23008F0FBC2E150F0E0E75A69
:100FA000FD4F848980680E9407048BE391E00E94D2
:100FB000200345E0C501B4010E94B504C114D10469
:100FC00009F482CF0E942102882309F479CF0E947C
:100FD000000076CFCA3209F405C1CC3209F0BBC299
:100FE00080913A028C2780933A02FCC090914C0287
:100FF000F0E0E45CFD4F1082D0913B02DD2309F468
:101000006AC120913C02822F022E000C990B3FEB0B
:10101000320F363008F0EBC0C7978295807F9091F1
:101020003D02292F092E000C330B4FEB490F4630A0
:1010300008F0E5C027533109820F90913A028913D5
:1010400040C1D0914E02DD2309F4CFC080915302FC
:101050009091540201969093540280935302809190
:101060002E0290912F02A0913002B0913102809314
:101070002A0290932B02A0932C02B0932D02809110
:10108000360290913702A0913802B09139028093D4
:10109000320290933302A0933402B09335028091D0
:1010A0004B02882309F4B4C0813009F060C08091FC
:1010B000EA019091EB01A091EC01B091ED018093D8
:1010C000E6019093E701A093E801B093E9018091D4
:1010D000F2019091F301A091F401B091F501809398
:1010E000EE019093EF01A093F001B093F101809194
:1010F000FA019091FB01A091FC01B091FD01809358
:10110000F6019093F701A093F801B093F901809153
:10111000020290910302A0910402B0910502809313
:10112000FE019093FF01A0930002B0930102809111
:10113000120290911302A0911402B09115028093B3
:101140000E0290930F02A0931002B09311028091AF
:101150001A0290911B02A0911C02B0911D02809373
:10116000160290931702A0931802B093190280916F
:101170004C028F5F80934C0210924D0281E0CA3284
:1011800009F080E080933B02D1110D2F89E491E0BA
:101190000E941502892B09F49CCE89E491E00E94FB
:1011A000F301C82F80914F0290915002A0915102FB
:1011B000B09152020196A11DB11D80934F029093F0
:1011C0005002A0935102B0935202C43209F4B6C146
:1011D000E0914D02C5320CF0FDCECA3019F0CD3091
:1011E00009F0B9C1EF3008F401CFD0E0C0CF2156EB
:1011F000263018F48755910910CFC0970ECF91561D
:10120000963018F42755310917CF2053310914CFE0
:1012100080910A0290910B02A0910C02B0910D02F4
:101220008093060290930702A0930802B0930902EC
:101230008091EA019091EB01A091EC01B091ED0158
:101240008093E6019093E701A093E801B093E90150
:101250008091FA019091FB01A091FC01B091FD01F8
:101260008093F6019093F701A093F801B093F901F0
:101270008091020290910302A0910402B0910502B4
:101280008093FE019093FF01A0930002B0930102AE
:101290008091280290912902909327028093260240
:1012A0008091220290912302A0912402B091250204
:1012B00080931E0290931F02A0932002B0932102FC
:1012C00056CF809155029091560201969093560206
:1012D000809355028ACF91111CC04CE352E0AAE2E0
:1012E000B1E0CA01FC012191CF01222309F452C1CE
:1012F0003D912317B9F3A0E3B1E0FA018191AF0169
:10130000882309F44AC19D918917B9F310934B02C0
:101310002ECFE0914B02E23009F467CF80913C027E
:10132000882309F462CF20E2E29FF0011124E92B27
:101330003197E932F10508F01ACFEF55F64F0C94CA
:10134000640DE709020A170A320A3D0A770A7E0A83
:10135000880A930AB708B708B708B708B708B708E4
:10136000B708B708B708B708B708B708B708B70885
:10137000B708B708B708B708B708B708B708B70875
:10138000B708E709FC09020A170A320A3D0A580A97
:10139000630ACA09ECE3F2E020E030E0A9016190C1
:1013A00080ED860D8A3008F099C0AAE0B0E00E9476
:1013B0006A0D262D660C330B440B550B260F371F79
:1013C000481F591F2053310941095109E8CF0E9494
:1013D000A6006093EA017093EB018093EC01909377
:1013E000ED010E94100360932E0270932F028093F0
:1013F000300290933102BBCE91E0813409F47BC07E
:1014000090E079C00E9418016093FA017093FB018B
:101410008093FC019093FD010E94100360933602BB
:10142000709337028093380290933902A0CE8335AF
:1014300009F0DBCE8091FA019091FB01A091FC01B3
:10144000B091FD01B095A095909581959F4FAF4FBC
:10145000BF4F8093FA019093FB01A093FC01B093DE
:10146000FD0185CE0E941801609302027093030271
:1014700080930402909305027ACE873509F0B5CEA9
:101480008091020290910302A0910402B0910502A2
:10149000B095A095909581959F4FAF4FBF4F80938A
:1014A000020290930302A0930402B09305025FCE60
:1014B0000E94A6006093120270931302809314029C
:1014C0009093150254CE0E94A60060931A02709366
:1014D0001B0280931C0290931D0249CE2093F201BF
:1014E0003093F3014093F4015093F50140CE91E025
:1014F00081330CF485CF90934E0239CE8CE392E089
:101500000E94D00A992790932902809328022FCE17
:101510000E94A6006093220270932302809324020B
:101520009093250224CE0E94A60060930A02709335
:101530000B0280930C0290930D0219CE10924D0273
:1015400010924C0210923A0210934B0210923B02FE
:1015500010924E021BCEEE3040F481E08E0F80934D
:101560004D02F0E0E45CFD4FC08380913B028111AD
:101570000DCE80913A02C827C0933A0207CE412C83
:10158000512C8AE7682E84E4782E53014201F1CC75
:10159000E1E004CD30924B02EACD10924B02E7CD50
:1015A000FC0188279927E89421912032E9F329301A
:1015B00010F02E30C8F32B3241F02D3239F46894FC
:1015C00004C00E94EE0A820F911D219120532A30FF
:1015D000C0F31EF4909581959F4F08957AE0979FF0
:1015E000902D879F802D910D112408955058BB2771
:1015F000AA270E940E0B0C94810C0E94730C38F0E9
:101600000E947A0C20F039F49F3F19F426F40C94D0
:10161000700C0EF4E095E7FB0C946A0CE92F0E9425
:10162000920C58F3BA17620773078407950720F0E6
:1016300079F4A6F50C94B40C0EF4E0950B2EBA2FA9
:10164000A02D0B01B90190010C01CA01A0011124C8
:10165000FF27591B99F0593F50F4503E68F11A1674
:10166000F040A22F232F342F4427585FF3CF469505
:1016700037952795A795F0405395C9F77EF41F1627
:10168000BA0B620B730B840BBAF09150A1F0FF0FF1
:10169000BB1F661F771F881FC2F70EC0BA0F621FDD
:1016A000731F841F48F4879577956795B795F795CD
:1016B0009E3F08F0B0CF9395880F08F09927EE0F62
:1016C0009795879508950E94460C08F481E0089547
:1016D0000E947C0B0C94810C0E947A0C58F00E94A2
:1016E000730C40F029F45F3F29F00C946A0C5111FF
:1016F0000C94B50C0C94700C0E94920C68F3992316
:10170000B1F3552391F3951B550BBB27AA276217FD
:101710007307840738F09F5F5F4F220F331F441F0A
:10172000AA1FA9F335D00E2E3AF0E0E832D091503E
:101730005040E695001CCAF72BD0FE2F29D0660F2B
:10174000771F881FBB1F261737074807AB07B0E86E
:1017500009F0BB0B802DBF01FF2793585F4F3AF074
:101760009E3F510578F00C946A0C0C94B50C5F3FC9
:10177000E4F3983ED4F3869577956795B795F795FA
:101780009F5FC9F7880F911D9695879597F90895E2
:10179000E1E0660F771F881FBB1F6217730784077E
:1017A000BA0720F0621B730B840BBA0BEE1F88F78D
:1017B000E09508950E949A0C88F09F5798F0B92FF1
:1017C0009927B751B0F0E1F0660F771F881F991F76
:1017D0001AF0BA95C9F714C0B13091F00E94B40C58
:1017E000B1E008950C94B40C672F782F8827B85F68
:1017F00039F0B93FCCF3869577956795B395D9F7CE
:101800003EF490958095709561957F4F8F4F9F4FD7
:101810000895E89409C097FB3EF4909580957095E3
:1018200061957F4F8F4F9F4F9923A9F0F92F96E92C
:10183000BB279395F695879577956795B795F111A1
:10184000F8CFFAF4BB0F11F460FF1BC06F5F7F4F3E
:101850008F4F9F4F16C0882311F096E911C0772350
:1018600021F09EE8872F762F05C0662371F096E859
:10187000862F70E060E02AF09A95660F771F881F28
:10188000DAF7880F9695879597F90895990F0008CC
:10189000550FAA0BE0E8FEEF16161706E807F90742
:1018A000C0F012161306E407F50798F0621B730BDD
:1018B000840B950B39F40A2661F0232B242B252B5E
:1018C00021F408950A2609F4A140A6958FEF811D01
:1018D000811D089597F99F6780E870E060E00895A2
:1018E0009FEF80EC089500240A9416161706180638
:1018F0000906089500240A94121613061406050614
:101900000895092E0394000C11F4882352F0BB0FA4
:1019100040F4BF2B11F460FF04C06F5F7F4F8F4F07
:101920009F4F089557FD9058440F551F59F05F3F42
:1019300071F04795880F97FB991F61F09F3F79F0F1
:1019400087950895121613061406551FF2CF469573
:10195000F1DF08C0161617061806991FF1CF8695F5
:101960007105610508940895E894BB2766277727D9
:10197000CB0197F908950E94460C08F48FEF089563
:101980000E94D30C0C94810C0E94730C38F00E94BE
:101990007A0C20F0952311F00C946A0C0C94700CC6
:1019A00011240C94B50C0E94920C70F3959FC1F316
:1019B000950F50E0551F629FF001729FBB27F00DFD
:1019C000B11D639FAA27F00DB11DAA1F649F662752
:1019D000B00DA11D661F829F2227B00DA11D621FA1
:1019E000739FB00DA11D621F839FA00D611D221F5B
:1019F000749F3327A00D611D231F849F600D211D3F
:101A0000822F762F6A2F11249F5750409AF0F1F0C1
:101A100088234AF0EE0FFF1FBB1F661F771F881F2A
:101A200091505040A9F79E3F510580F00C946A0CEC
:101A30000C94B50C5F3FE4F3983ED4F3869577950C
:101A40006795B795F795E7959F5FC1F7FE2B880FD0
:101A5000911D9695879597F908950E94460C880BDD
:101A6000990B0895DB018F939F930E946A0DBF919C
:101A7000AF91A29F800D911DA39F900DB29F900DDD
:101A800011240895A1E21A2EAA1BBB1BFD010DC053
:101A9000AA1FBB1FEE1FFF1FA217B307E407F5071E
:101AA00020F0A21BB30BE40BF50B661F771F881FFA
:101AB000991F1A9469F760957095809590959B0190
:101AC000AC01BD01CF010895EE0FFF1F0590F49109
:101AD000E02D09940E947D0DA59F900DB49F900D5F
:101AE000A49F800D911D11240895B7FF0C946A0DD9
:101AF0000E946A0D821B930B0895A29FB001B39FB1
:101B0000C001A39F700D811D1124911DB29F700D06
:0C1B1000811D1124911D0895F894FFCF51
:101B1C00000000005702B701E401A4021502F30112
:101B2C00070200000000AF04B7011D031C036E6127
:101B3C006E00696E66006F7666004750524D43002A
:101B4C004750474741004C41543A004C4F4E3A00E5
:00000001FF
